:100000000C9486000C94AE000C94AE000C94AE00E0
:100010000C94AE000C94AE000C94AE000C94AE00A8
:100020000C94AE000C94AE000C94AE000C94AE0098
:100030000C94AE000C94AE000C94AE000C94AE0088
:100040000C94F00E0C94AE000C94F50B0C94AE00D6
:100050000C94AE000C94AE000C94AE000C94AE0068
:100060000C94AE000C94AE000000000024002700A9
:100070002A0000000000250028002B0000000000DE
:1000800023002600290004040404040404040202DA
:100090000202020203030303030301020408102007
:1000A0004080010204081020010204081020000012
:1000B0000007000201000003040600000000000029
:1000C0000000494E46494E4954594E414ECDCCCC84
:1000D0003D0AD7233C17B7D13877CC2B329595E61C
:1000E000241FB14F0A000020410000C84200401CFC
:1000F0004620BCBE4CCA1B0E5AAEC59D74636469D3
:100100006E6F70737578585B0000EA0C11241FBE87
:10011000CFEFD4E0DEBFCDBF13E0A0E0B1E0EAE373
:10012000F7E202C005900D92A033B107D9F714E0B1
:10013000A0E3B3E001C01D92A13BB107E1F711E0DC
:10014000CCE0D1E004C02297FE010E945513CA30D2
:10015000D107C9F70E94EE0B0C949B130C9400007E
:10016000A0E0B0E0E6EBF0E00C946A13EC015B0178
:100170006115710519F0FB0191838083F9908F2D32
:1001800090E00E945913892BC9F7FDE2FF1621F474
:10019000F990EE24E39405C02BE2F21609F4F990ED
:1001A000EE248E0101501040C80162EC70E043E083
:1001B00050E00E941002892B01F58E010E5F1F4F47
:1001C000C80165EC70E045E050E00E941002892B08
:1001D00019F48E01095F1F4FA114B10419F0F50144
:1001E00011830083E0FC04C070E090E080E814C05C
:1001F00070E090E080E86FEF08C1C8016AEC70E041
:1002000043E050E00E941002892B69F4A114B1046C
:1002100029F470E090E080EC6FE7F7C02296F501DA
:10022000D183C083F6CF8824992440E050E060E079
:1002300070E0EF2DE053EA30A0F5F2E0EF2A8E2DCA
:1002400090E09C0128703070E2FE06C0232B79F507
:100250000894811C911C2BC0232B19F00894810851
:100260009108DB01CA0112E0880F991FAA1FBB1F6A
:100270001A95D1F7480F591F6A1F7B1F440F551F4E
:10028000661F771F4E0F511D611D711D483929E9E9
:10029000520729E9620729E1720748F084E0E82A59
:1002A00006C0EE3F31F4E3FC39C098E0E92AF9904A
:1002B000C0CFE53311F0E53189F529912D3219F4DC
:1002C000E0E1EE2A05C02B3219F081E090E003C096
:1002D000299182E090E0E22FE053EA3018F0C81B49
:1002E000D90B1CC020E030E0FCE020383F075CF474
:1002F000C901880F991F880F991F280F391F220FD6
:10030000331F2E0F311DE991E053EA3068F3E4FE0C
:1003100003C0309521953F4F820E931ECE2CDD24D5
:10032000E1FE07C0A114B10421F02197F501D183AA
:10033000C083CB01BA010E94C1117B018C01F3E0A3
:10034000CF22DD2423E0C216D10421F417FB10953F
:1003500017F9109557016801C801B70120E030E096
:1003600040E050E00E942411882309F44AC097FE1F
:100370000DC021EEE22E20E0F22E9094819491089F
:100380009394C0E2D0E000E010E012C099EFE92EB3
:1003900090E0F92EF6CFF7012591359145915491D2
:1003A000C601B5010E9473125B016C018C1A9D0A93
:1003B0008C169D0684F7D595C7950F5F1F4F0630A5
:1003C000110529F08CEF9FEFE80EF91EF1CFC50162
:1003D000D6017C018D018C2D880F8D2D881F8F3FBC
:1003E00051F0C601B50120E030E040E050E00E944D
:1003F0002411882331F482E290E09093B00480933A
:10040000AF047E2D9F2D802F612F272F392F482F4E
:10041000562FB901CA01CDB7DEB7ECE00C948613B4
:10042000FB01DC014150504088F08D9181341CF07B
:100430008B350CF4805E659161341CF06B350CF4E7
:10044000605E861B611171F3990B0895881BFCCFC8
:1004500040E353E00E944A020895FB01DC01415051
:10046000504030F08D910190801919F40020B9F7B7
:10047000881B990B0895FB01DC014150504048F066
:1004800001900D920020C9F701C01D9241505040CB
:10049000E0F70895009731F4DA018D919C9100976F
:1004A00009F40EC0DC01FB013D912191222319F0DA
:1004B0003217C9F3FACF332331F4DA011D921C92BB
:1004C0008827992708951197AF93BF93FB013D911A
:1004D0002191321771F4332321F48827992711973A
:1004E00002C01E921196FA01A193B0839F918F9141
:1004F0000895222369F7EACFAEE0B0E0E2E8F2E047
:100500000C94741385E08C838B899C899A838983EE
:100510009E01295E3F4FCE0101966D897E89A9011A
:100520000E941A042E96E2E00C949013FC0120FD28
:1005300008C023FD05C022FF02C07383628351837C
:1005400040830895EF92FF920F931F9344FF02C0E0
:1005500033E011C046FF02C034E00DC0DB01FC01F6
:10056000AA0FBB1FEE1FFF1F1094D1F76A0F7B1F4E
:100570008E1F9F1F31E0660F771F881F991F315014
:10058000D1F77B018C01E20EF11C011D111DA801A8
:100590009701B701CA011F910F91FF90EF90089545
:1005A0000F931F93CF93DF938C01C8010E943605F0
:1005B000EC0197FD08C00E945913892BB1F7CE01B9
:1005C000B8010E947805CE01DF91CF911F910F9164
:1005D0000895A0E0B0E0EFEEF2E00C946C13EC01B3
:1005E000C62E5A01122F0E943605AC018B3219F02B
:1005F0008D3251F41068CA9409F46DC0CE010E9486
:100600003605AC0197FD67C06DEFD62ED1228D2D3A
:10061000807301F54033F1F4CA9409F447C0CE0168
:100620000E943605AC0197FD41C082E0D82A4837C8
:1006300011F0483559F480E4D82ACA94B9F1CE01B2
:100640000E943605AC0199232CF430C0D6FC02C0C0
:1006500080E1D82AEE24FF248701242F205328305C
:1006600088F0D4FC09C02A3068F0D6FE05C02F7D82
:10067000822F8151863028F0CA01BE010E94780580
:1006800012C02750C801B7014D2D0E94A2027B0164
:100690008C0182E0D82ACA9461F0CE010E9436050E
:1006A000AC0197FFDACFD1FC04C015C0EE24FF24C3
:1006B0008701D7FE08C010950095F094E094E11CE6
:1006C000F11C011D111DC501B801A7012D2D0E94AE
:1006D000960281E001C080E0CDB7DEB7EAE00C947D
:1006E0008813A0E2B0E0E7E7F3E00C9468136C0134
:1006F000A62E8A017901FE01319680E2DF011D926A
:100700008A95E9F770E030E060E040E050E04F01AA
:10071000A1E0B0E0F6018381F70183FD259183FF1D
:1007200021917F01222309F47EC02E3519F4411551
:10073000510569F1872F90E08417950744F42D3512
:1007400051F12D3221F4332329F431E021C0332338
:1007500009F4622F322F832F869586958695F401B2
:10076000E80FF11D832F87703D0102C0660C771CD6
:100770008A95E2F7208126292083361711F430E08C
:1007800007C0361710F43F5FE6CF3150E4CF71E079
:100790004F5F5F4FBFCF332319F08E8180628E830E
:1007A000772359F0FE0131969E012F5D3F4F8081E6
:1007B00080958193E217F307D1F7BB24B3944E01E0
:1007C0000894811C911CC6010E943605AC0197FD5E
:1007D00022C0869586958695F401E80FF11D8081EB
:1007E00090E09A012770307002C0959587952A9500
:1007F000E2F780FD05C0CA01B6010E9478050BC072
:100800000115110519F0D8014D938D01AA94BB244F
:10081000AA20C9F602C0BB2031F40115110529F048
:10082000F801108202C0EE24FF24C701A096EEE07A
:100830000C948413A0E0B0E0E0E2F4E00C946813C0
:100840005C016B013A01FC01178216828824EAC020
:10085000812F90E00E945913892B21F0C5010E943D
:10086000D002E0C0153249F4F601F3FC6591F3FEC5
:1008700061916F01653269F415E2C5010E94360588
:1008800097FDDCC0181709F4CDC0B5010E947805AA
:10089000DAC06A3219F0162F00E006C0F3FC159199
:1008A000F3FE11916F0101E099240FC00260692DE0
:1008B00070E080E090E040E20E94A202962EF601F5
:1008C000F3FC1591F3FE11916F01212F20532A3073
:1008D00068F301FD03C099249A9403C0992009F498
:1008E000B2C0183621F01C3699F4F6010BC0F6019F
:1008F000F3FC6591F3FE6191683619F06F01162FD4
:1009000007C008600460F3FC1591F3FE11916F01BC
:10091000112309F498C08DEF90E0612F70E00E94E0
:100920002B05892B09F48FC0802F00FF03C0EE2414
:10093000FF2407C0F301E080F18022E030E0620E86
:10094000731E1E3651F4F5014681578160E070E058
:10095000C701202F0E94960265C0133691F481FDD5
:1009600002C099249394C5010E94360597FD66C084
:10097000E114F10419F0F70181937F019A9499F73A
:100980004FC01B3559F4C501692DA70196010E947E
:1009900071036C01009709F043C03DC0C5010E947E
:1009A000D00297FD4BC01F3659F1103728F414368A
:1009B00029F1193639F527C0133719F0153711F514
:1009C0001DC0C5010E943605EC0197FD11C00E94B3
:1009D0005913892B29F0CE01B5010E94780508C072
:1009E000E114F10419F0F701C1937F019A9449F7DA
:1009F000E114F104A9F0F701108212C0006203C0F3
:100A0000006101C00064C501692DA701202F0E946B
:100A1000E902882329F4F5018381807379F413C0F6
:100A200000FF8394F501F380F601F3FC1591F3FECA
:100A300011916F01112309F00BCF05C0882019F423
:100A40002FEF3FEF02C0282D30E0C901CDB7DEB750
:100A5000EEE00C948413FC010590061621F00020B2
:100A6000D9F7C00108953197CF010895CF93DF934F
:100A7000EC014B8140FF1AC046FF0AC04F7B4B83FD
:100A80008E819F8101969F838E838A81282F2BC020
:100A900042FF13C0E881F9818081282F332727FD89
:100AA00030952115310529F440624B832FEF3FEF3C
:100AB0001BC03196F983E88311C0EA85FB85CE011E
:100AC00009959C0197FF0AC09B812F5F3F4F11F052
:100AD00080E201C080E1892B8B83E8CF8E819F81EA
:100AE00001969F838E8330E0C901DF91CF910895F5
:100AF0009C01FB01838180FF11C086FD0FC09FEF29
:100B00002F3F390759F0228380648F7D838386814C
:100B1000978101979783868330E002C02FEF3FEFE4
:100B2000C9010895AF92BF92CF92DF92EF92FF92E8
:100B30000F931F93CF93DF93E82EEB0159016A01C6
:100B40008E2D0E947010892BD9F78E2D0E94701067
:100B5000892BE9F59E01442737FD4095542F60E429
:100B600072E48FE090E00E94181389010451104054
:100B7000C80162E070E00E94E312CB010E94620FA4
:100B8000FF24C0E0D0E0C8010E94620F8E2D0E94B9
:100B900070100C2E02C0880F991F0A94E2F7F82AF1
:100BA0002196C830D10579F7B801882777FD80955F
:100BB000982F0E94C311A60195010E9473120E94F2
:100BC0009011DC01CB010E94620F8F2D00C0DF91DC
:100BD000CF911F910F91FF90EF90DF90CF90BF903A
:100BE000AF9008954F925F926F927F928F929F92F3
:100BF000AF92BF92CF92DF92EF92FF920F931F932B
:100C0000CF93DF932C016B013A01480159010894FD
:100C1000C108D108C0E0D0E009C0C201B301A501FC
:100C200094010E949205F60180832196F60181913C
:100C30006F01992787FD90958E159F0571F7CE015D
:100C4000DF91CF911F910F91FF90EF90DF90CF90A8
:100C5000BF90AF909F908F907F906F905F904F90DC
:100C600008958F929F92AF92BF92CF92DF92EF92B0
:100C7000FF920F931F93CF93DF9380E090E0A0E06B
:100C8000B0E08093000490930104A0930204B09319
:100C900003048093040490930504A0930604B09386
:100CA00007041092F7031092F6038091F4029091DA
:100CB000F50268E773E040EC52E100E010E020E06C
:100CC00030E4E4E2EE2EF12C0E94F2058091F40271
:100CD0009091F50268E773E040EC52E100E010E02B
:100CE00020E030E40E94F2057C0100E010E0EC011D
:100CF00021970AC0F801E858FC4F84E994E060812C
:100D00000E94580D0F5F1F4F0C171D079CF384E9BD
:100D100094E00E94680D88E793E066EF72E045E09A
:100D200050E00E942D02009709F03BC185E0E816D3
:100D3000F1040CF436C184E994E060E071E00E94B3
:100D4000600D88E793E068E071E00E942802EC0102
:100D500084E994E06AE071E00E94600D882499249F
:100D6000EBC080E090E068E071E00E942802EC01B6
:100D700084E994E060E171E00E94600D81149104C7
:100D800071F4CE0160E070E00E94B000609308044E
:100D90007093090480930A0490930B0492C081E03D
:100DA00088169104C1F5CE0160E070E00E94B000A9
:100DB0005B016C0120E030E048EC52E40E94281115
:100DC0000E949011882777FD8095982F0E94C3116B
:100DD0007B018C0120E030E048EC52EC0E94731261
:100DE0009B01AC01C601B5010E94C01020E030E0BB
:100DF00040E752E40E9428119B01AC01C801B701F1
:100E00000E94C01060930004709301048093020458
:100E1000909303046FC082E088169104B1F4888136
:100E2000833509F067C08091000490910104A0917E
:100E30000204B0910304B05880930004909301041D
:100E4000A0930204B093030455C083E08816910474
:100E5000C1F5CE0160E070E00E94B0005B016C0162
:100E600020E030E048EC52E40E9428110E949011EA
:100E7000882777FD8095982F0E94C3117B018C01F4
:100E800020E030E048EC52EC0E9473129B01AC0170
:100E9000C601B5010E94C01020E030E040E752E4F6
:100EA0000E9428119B01AC01C801B7010E94C0102B
:100EB00060930404709305048093060490930704E0
:100EC00019C084E088169104A9F48881873589F5D2
:100ED0008091040490910504A0910604B091070448
:100EE000B0588093040490930504A0930604B09333
:100EF00007041FC086E08816910461F4CE0160E00B
:100F000070E00E94B0000E9490117093F50360930E
:100F1000F4030FC088E08816910459F4CE0160E014
:100F200070E00E94B0000E9490117093F7036093EC
:100F3000F6030894811C911CCD2B09F012CF84E993
:100F400094E066E171E00E94600D409100045091D0
:100F50000104609102047091030484E994E00E940A
:100F6000EC0E84E994E060E271E00E94600D409133
:100F7000040450910504609106047091070484E90B
:100F800094E00E94EC0E84E994E060E271E00E943B
:100F9000600D6091F6037091F70384E994E00E947C
:100FA0004D0EDF91CF911F910F91FF90EF90DF9049
:100FB000CF90BF90AF909F908F9008952F923F92C7
:100FC0004F925F926F927F928F929F92AF92BF9259
:100FD000CF92DF92EF92FF920F931F93DF93CF9305
:100FE00000D00F92CDB7DEB7A82E69831A01290170
:100FF000980136014701442737FD4095542F60E49E
:1010000072E48FE090E00E9418133B832A838A2DBC
:10101000B2010E94AA0FBA80EB808B2D9E2D0E94F8
:10102000620FFF24F39400E010E02981C22EDD243A
:10103000C7FCD0948F2D90E08C219D21892B19F035
:101040008A2DB10102C08A2DB2010E94AA0F8B2DF8
:101050009E2D0E94620FFF0C0F5F1F4F083011057D
:1010600049F78A2DB1010E94AA0FEA81FB81BF01D5
:10107000882777FD8095982F0E94C311A4019301C2
:101080000E9473120E949011DC01CB010E94620F3A
:101090000F900F900F90CF91DF911F910F91FF90C4
:1010A000EF90DF90CF90BF90AF909F908F907F9008
:1010B0006F905F904F903F902F9008952F923F92A6
:1010C0004F925F926F927F928F929F92AF92BF9258
:1010D000CF92DF92EF92FF920F931F93DF93CF9304
:1010E00000D000D0CDB7DEB79A8389831A012901D9
:1010F0003801460157017C836B8309C089819A813D
:10110000A10192018301750164010E94DE07EB8158
:10111000FC816191FC83EB83662381F70F900F9034
:101120000F900F90CF91DF911F910F91FF90EF9053
:10113000DF90CF90BF90AF909F908F907F906F90F7
:101140005F904F903F902F900895CF92DF92EF9253
:10115000FF920F931F938091F2029091F30268E146
:1011600073E040EF50E024E130E008E512E00F2E9C
:10117000F0E0CF2EF0E0DF2EF0E8EF2EFFE3FF2EC1
:10118000F02D0E945E088091F0029091F10262EDD4
:1011900073E048E552E097018601F0E2EF2EF12C72
:1011A0000E94F2052091D30304E62002900111244D
:1011B0008091D4031AE08102C0011124280F391F45
:1011C0008091D503992787FD9095280F391F80912D
:1011D000D6036AE00E94D612992787FD9095820F68
:1011E000931F68E671E00E94E312AA2797FDA0957D
:1011F000BA2FBC01CD010E94C3116093F803709314
:10120000F9038093FA039093FB032091D803200203
:10121000900111248091D9038102C0011124280F6B
:10122000391F8091DA03992787FD9095280F391F80
:101230008091DB036AE00E94D612992787FD909582
:10124000820F931F68E671E00E94E312AA2797FDC0
:10125000A095BA2FBC01CD010E94C3116093FC037D
:101260007093FD038093FE039093FF0304E914E061
:10127000C8010E94680DC80162E271E00E94600D21
:101280004091F8035091F9036091FA037091FB03C8
:10129000C8010E94EC0EC8016FE271E00E94600D6F
:1012A0004091FC035091FD036091FE037091FF0398
:1012B000C8010E94EC0E1F910F91FF90EF90DF90FC
:1012C000CF900895CF92DF92EF92FF920F931F93EA
:1012D0008C017B012DB73EB7285030400FB6F894F3
:1012E0003EBF0FBE2DBFEDB7FEB7319682E393E050
:1012F000ADB7BEB712969C938E93119784E391E09D
:101300009383828388EE93E0958384838AEE93E0CF
:10131000978386830E947C022DB73EB7285F3F4F9C
:101320000FB6F8943EBF0FBE2DBF02972CF484E990
:1013300094E06EE371E01CC06091E8037091E903F2
:10134000CB01855E9D4F8753944028F084E994E05B
:101350006AE671E00DC04091EA035091EB03CA01C7
:1013600087968F3E910538F084E994E06AE971E050
:101370000E947F0D88C02091EC033091ED03260F71
:10138000371F28593E4F200F311FE091EE03F09197
:10139000EF03E40FF51FE859FE4FEE0DFF1DC901E5
:1013A00068EE73E00E94E312605D60930B03C90175
:1013B00068EE73E00E94E3129C0164E670E00E9414
:1013C000E312605D60930C03C90164E670E00E9463
:1013D000E3129C016AE070E00E94E312605D60939A
:1013E0000D03C9016AE070E00E94E31280930C04CF
:1013F00090930D04805D80930E03CF0168EE73E03F
:101400000E94E312605D60931003CF0168EE73E009
:101410000E94E3129C0164E670E00E94E312605DAA
:1014200060931103C90164E670E00E94E3129C011D
:101430006AE070E00E94E312605D60931203C901EC
:101440006AE070E00E94E31280930E0490930F0410
:10145000805D809313038091F2029091F3026AE021
:1014600073E040EF50E024E130E008E512E00F2E99
:10147000F0E0CF2EF0E0DF2EF0E8EF2EFFE3FF2EBE
:10148000F02D0E945E081F910F91FF90EF90DF906A
:10149000CF9008954F925F926F927F928F929F921A
:1014A000AF92BF92CF92DF92EF92FF920F931F9372
:1014B000CF93DF9302E3402E03E0502E1BE0812EFA
:1014C00012E0912EBCEE6B2EB3E07B2EAEEEAA2E78
:1014D000A3E0BA2E8091EE0261E00E94231084E91D
:1014E00094E00E949B0C882309F436C164E670E006
:1014F00080E090E00E94380FC0E0D0E007C084E9AF
:1015000094E00E94AF0CD8018C93219684E994E07A
:101510000E949B0C8E010E5C1C4F882381F7F80102
:10152000108200E010E00AC0F801EE5CFC4F84E994
:1015300094E060810E94580D0F5F1F4F0C171D072C
:101540009CF384E994E06CEC71E00E947F0D8FEDD8
:1015500093E062E373E049E050E00E943B0284E9DB
:1015600094E06FED73E00E947F0D8FED93E063EEEA
:1015700071E049E050E00E942D02009729F480E0DC
:1015800090E060E070E0C0C08FED93E06DEE71E040
:1015900049E050E00E942D020097C9F48091F202C8
:1015A0009091F3026CEF72E040EF50E024E130E004
:1015B00008E512E00F2EF0E0CF2EF0E0DF2EF0E88D
:1015C000EF2EFFE3FF2EF02D0E945E08B7C08FEDD7
:1015D00093E067EF71E049E050E00E942D02009730
:1015E00019F40E94A508AAC08FED93E061E072E0B3
:1015F00049E050E00E942D02009751F52DB73EB70B
:10160000285030400FB6F8943EBF0FBE2DBFEDB747
:10161000FEB73196ADB7BEB712965C924E92119757
:101620009382828275826482B782A6820E947C0243
:10163000EDB7FEB738960FB6F894FEBF0FBEEDBFFC
:1016400002970CF07BC084E994E06BE172E074C017
:101650008FED93E064E472E049E050E00E942D02D7
:101660000097B9F46091EC037091ED0384E994E084
:101670000E944D0E84E994E060E271E00E94600DEA
:101680006091EE037091EF0384E994E00E94550E9F
:1016900055C08FED93E06EE472E049E050E00E94A7
:1016A0002D020097F9F40E94A5086091F80370914B
:1016B000F9038091FA039091FB030E9490117093BB
:1016C000F1036093F0036091FC037091FD0380913E
:1016D000FE039091FF030E9490117093F3036093B7
:1016E000F2032CC08FED93E068E572E049E050E032
:1016F0000E942D02009759F46091F2037091F30358
:101700008091F0039091F1030E94620917C08FED60
:1017100093E062E672E049E050E00E942D020097FB
:1017200019F40E9431060AC084E994E00E94680D11
:1017300084E994E06CE672E00E947F0D84E994E015
:101740000E94680D84E994E063E972E00E947F0DD5
:1017500084E994E00E94680D8091EE0260E00E94AE
:101760002310B8CE0F931F938091EE0261E00E9488
:1017700003108091F00260E00E9403108091F20259
:1017800061E00E9403108091F40260E00E94031067
:1017900004E914E0C80140EC52E160E070E00E940E
:1017A000320CC80165EB72E00E947F0DC80169EC44
:1017B00072E00E947F0D1092ED031092EC031092E4
:1017C000EF031092EE031092F1031092F0031092C7
:1017D000F3031092F2031F910F9108950E94700F6E
:1017E0000E94B20B0E944A0AFDCF1F920F920FB6C1
:1017F0000F9211242F933F934F935F936F937F9397
:101800008F939F93AF93BF93EF93FF934091C60045
:10181000E0919004F0919104CF01019660E870E0AE
:101820000E94E3129C0180919204909193042817E6
:10183000390739F0E05FFB4F4083309391042093E8
:101840009004FF91EF91BF91AF919F918F917F9104
:101850006F915F914F913F912F910F900FBE0F901D
:101860001F901895AF92BF92CF92DF92EF92FF92A6
:101870000F931F93CF93DF936C017A018B01DC01EF
:101880001496AD90BC901597CB01BA0122E030E0E0
:1018900040E050E00E941813205C3D4B404F5F4FEA
:1018A000CA01B901A80197010E941813C901DA0100
:1018B0000197A109B109292F3A2F4B2F552747FD31
:1018C0005A950196A11DB11DE5012883E601EE811F
:1018D000FF8181508083EA85FB85208141E050E0D3
:1018E000CA010E8402C0880F991F0A94E2F7282BC0
:1018F0002083EA85FB852081CA010F8402C0880FFE
:10190000991F0A94E2F7282B2083EA85FB858081C2
:10191000088802C0440F551F0A94E2F7842B808385
:10192000DF91CF911F910F91FF90EF90DF90CF90BB
:10193000BF90AF900895DC011296ED91FC91139742
:10194000E058FF4F8191919180589F4F20813181C4
:10195000821B930B60E870E00E94E3120895CF931E
:10196000DF93DC011296ED91FC911397EF01CE57B6
:10197000DF4F48815981E058FF4F80819181E058C5
:10198000F0408417950719F42FEF3FEF0CC0E40FD8
:10199000F51F2081CA01019660E870E00E94E31201
:1019A0009983888330E0C901DF91CF910895FC01CC
:1019B000A085B18521898C9190E0022E02C0959579
:1019C00087950A94E2F780FFF6CF0484F585E02D31
:1019D000608308958AE293E0909395048093940441
:1019E00080E194E0909397048093960485EC90E0D6
:1019F000909399048093980484EC90E090939B04D6
:101A000080939A0480EC90E090939D0480939C04D2
:101A100081EC90E090939F0480939E0486EC90E08C
:101A20009093A1048093A00484E08093A20483E0B7
:101A30008093A30487E08093A40485E08093A504A9
:101A400008950F931F93CF93DF938C01EB0109C08F
:101A50002196D801ED91FC910190F081E02DC80113
:101A6000099568816623A1F7DF91CF911F910F91AE
:101A70000895EF92FF920F931F93CF93DF938C0102
:101A80007B01EA010CC0D7016D917D01D801ED9178
:101A9000FC910190F081E02DC801099521972097D4
:101AA00091F7DF91CF911F910F91FF90EF900895E3
:101AB000DC01ED91FC910190F081E02D09950895F4
:101AC000DC01ED91FC910280F381E02D09950895F0
:101AD0000F931F938C01DC01ED91FC910190F0813B
:101AE000E02D6DE00995D801ED91FC910190F08118
:101AF000E02DC8016AE009951F910F9108950F9399
:101B00001F938C010E94600DC8010E94680D1F91F7
:101B10000F9108952F923F924F925F926F927F9212
:101B20008F929F92AF92BF92CF92DF92EF92FF92ED
:101B30000F931F93DF93CF93CDB7DEB7A0970FB668
:101B4000F894DEBF0FBECDBF1C016A017B014115B9
:101B500051056105710549F4DC01ED91FC9101909D
:101B6000F081E02D60E3099554C088249924540144
:101B7000422E55246624772401E010E00C0F1D1F2F
:101B8000080D191DC701B601A30192010E94F612AA
:101B9000F80160830894811C911CA11CB11CC70131
:101BA000B601A30192010E94F612C901DA016C018B
:101BB0007D01C114D104E104F104F1F681E0E82EC5
:101BC000F12CEC0EFD1EE80CF91C3E010894611C82
:101BD000711CD501C4010197A109B1096C01C81894
:101BE000D90814C0F601EE0DFF1D60816A3010F4B3
:101BF000605D01C0695CD101ED91FC910190F081C3
:101C0000E02DC10109950894E108F1086E147F04E4
:101C100049F7A0960FB6F894DEBF0FBECDBFCF91A7
:101C2000DF911F910F91FF90EF90DF90CF90BF90C9
:101C3000AF909F908F907F906F905F904F903F906C
:101C40002F9008952AE00E948A0D0895EF92FF9246
:101C50000F931F93CF93DF93EC017A018B0177FFF2
:101C60000FC0E881F9810190F081E02D6DE20995C6
:101C700010950095F094E094E11CF11C011D111DDC
:101C8000CE01B801A7012AE00E948A0DDF91CF9111
:101C90001F910F91FF90EF900895AB01662757FDBC
:101CA0006095762F0E94260E08950F931F938C0146
:101CB000AB01662757FD6095762F0E94260EC8015E
:101CC0000E94680D1F910F9108959F92AF92BF924D
:101CD000CF92DF92EF92FF920F931F93CF93DF93F8
:101CE000EC017A018B01922ECB01BA0120E030E0A9
:101CF00040E050E00E942411882364F4E881F981D7
:101D00000190F081E02DCE016DE2099517FB109551
:101D100017F9109520E030E040E05FE3AA240BC003
:101D2000CA01B90120E030E040E251E40E942811EC
:101D30009B01AC01A394A91498F3C801B7010E94B8
:101D4000C0105B016C010E9495117B018C01CE01DA
:101D5000B801A7010E94220E992029F0CE016CEE55
:101D600072E00E94600DC801B7010E94C1119B0181
:101D7000AC01C601B5010E94BF1020C020E030E0D8
:101D800040E251E40E9473127B018C010E94901189
:101D90005B016C01CC24B7FCC094DC2CCE01B601F5
:101DA000A5010E94260EC601B5010E94C3119B0128
:101DB000AC01C801B7010E94BF109A949920F1F6B6
:101DC000DF91CF911F910F91FF90EF90DF90CF9017
:101DD000BF90AF909F90089522E00E94650E0895F5
:101DE0001F920F920FB60F9211242F933F938F9350
:101DF0009F93AF93BF938091AA049091AB04A0915D
:101E0000AC04B091AD043091AE040196A11DB11D9A
:101E1000232F2D5F2D3720F02D570196A11DB11DC9
:101E20002093AE048093AA049093AB04A093AC04D7
:101E3000B093AD048091A6049091A704A091A8044A
:101E4000B091A9040196A11DB11D8093A6049093A1
:101E5000A704A093A804B093A904BF91AF919F9148
:101E60008F913F912F910F900FBE0F901F9018955B
:101E7000EF92FF920F931F937B018C018FB7F89421
:101E80004091AA045091AB046091AC047091AD04F0
:101E90008FBF2FB7F8948091AA049091AB04A091C2
:101EA000AC04B091AD042FBF841B950BA60BB70BF0
:101EB000E816F9060A071B0760F71F910F91FF90BC
:101EC000EF900895019759F0FC01EE0FFF1FEE0F00
:101ED000FF1F32978FB7F8943197F1F78FBF0895AE
:101EE000789484B5826084BD84B5816084BD85B5F5
:101EF000826085BD85B5816085BDEEE6F0E08081BC
:101F000081608083E1E8F0E080818260808380816D
:101F100081608083E0E8F0E0808181608083E1EB94
:101F2000F0E0808184608083E0EBF0E0808181607C
:101F30008083EAE7F0E08081846080838081826032
:101F4000808380818160808380818068808310921B
:101F5000C10008951F93CF93DF93182FEB0161E029
:101F60000E940310E12FF0E0E255FF4F849183308F
:101F700051F480918000806880938000D093890024
:101F8000C09388003CC0843051F48091800080620E
:101F900080938000D0938B00C0938A0030C0813042
:101FA00039F4209729F184B5806884BDC7BD27C066
:101FB000823039F42097E1F084B5806284BDC8BDD9
:101FC0001EC0863041F48091B00080688093B000DC
:101FD000C093B30014C0873041F48091B000806298
:101FE0008093B000C093B4000AC0C038D1051CF47F
:101FF000812F60E002C0812F61E00E942310DF91F9
:10200000CF911F910895282F30E0C90186569F4F28
:10201000FC0194912A573F4FF9018491882391F054
:10202000E82FF0E0EE0FFF1FE859FF4FA591B491A4
:10203000662329F48C91909589238C9308958C9133
:10204000892B8C930895482F50E0CA0182559F4FE9
:10205000FC012491CA0186569F4FFC0194914A5776
:102060005F4FFA0134913323D1F1222331F1233030
:1020700021F4809180008F7705C0243031F4809165
:1020800080008F7D8093800018C0213019F484B5C2
:102090008F7704C0223021F484B58F7D84BD0DC0BC
:1020A000263021F48091B0008F7705C0273029F4C5
:1020B0008091B0008F7D8093B000E32FF0E0EE0FB1
:1020C000FF1FEE58FF4FA591B491662329F48C9120
:1020D000909589238C9308958C91892B8C930895E6
:1020E000682F70E0CB0182559F4FFC012491CB01FA
:1020F00086569F4FFC0144916A577F4FFB01949194
:10210000992319F420E030E038C0222331F1233044
:1021100021F4809180008F7705C0243031F48091C4
:1021200080008F7D8093800018C0213019F484B521
:102130008F7704C0223021F484B58F7D84BD0DC01B
:10214000263021F48091B0008F7705C0273029F424
:102150008091B0008F7D8093B000892F90E0880F30
:10216000991F84589F4FFC01A591B4918C9120E058
:1021700030E0842311F021E030E0C9010895505887
:10218000BB27AA270ED075C166D130F06BD120F0E5
:1021900031F49F3F11F41EF45BC10EF4E095E7FBB0
:1021A00051C1E92F77D180F3BA176207730784070B
:1021B000950718F071F49EF58FC10EF4E0950B2E83
:1021C000BA2FA02D0B01B90190010C01CA01A00189
:1021D0001124FF27591B99F0593F50F4503E68F1E4
:1021E0001A16F040A22F232F342F4427585FF3CF25
:1021F000469537952795A795F0405395C9F77EF4F6
:102200001F16BA0B620B730B840BBAF09150A1F03E
:10221000FF0FBB1F661F771F881FC2F70EC0BA0FC4
:10222000621F731F841F48F4879577956795B7954C
:10223000F7959E3F08F0B3CF9395880F08F0992744
:10224000EE0F979587950895D9D008F481E0089509
:102250000CD00FC107D140F0FED030F021F45F3F29
:1022600019F0F0C0511139C1F3C014D198F399237A
:10227000C9F35523B1F3951B550BBB27AA2762174A
:102280007307840738F09F5F5F4F220F331F441F8F
:10229000AA1FA9F333D00E2E3AF0E0E830D09150C7
:1022A0005040E695001CCAF729D0FE2F27D0660FB4
:1022B000771F881FBB1F261737074807AB07B0E8F3
:1022C00009F0BB0B802DBF01FF2793585F4F2AF009
:1022D0009E3F510568F0B6C000C15F3FECF3983EE9
:1022E000DCF3869577956795B795F7959F5FC9F766
:1022F000880F911D9695879597F90895E1E0660FEF
:10230000771F881FBB1F621773078407BA0720F067
:10231000621B730B840BBA0BEE1F88F7E0950895D0
:1023200004D06894B111D9C00895BCD088F09F57EB
:1023300090F0B92F9927B751A0F0D1F0660F771F11
:10234000881F991F1AF0BA95C9F712C0B13081F0F1
:10235000C3D0B1E00895C0C0672F782F8827B85F39
:1023600039F0B93FCCF3869577956795B395D9F752
:102370003EF490958095709561957F4F8F4F9F4F5C
:102380000895E89409C097FB3EF490958095709568
:1023900061957F4F8F4F9F4F9923A9F0F92F96E9B1
:1023A000BB279395F695879577956795B795F11126
:1023B000F8CFFAF4BB0F11F460FF1BC06F5F7F4FC3
:1023C0008F4F9F4F16C0882311F096E911C07723D5
:1023D00021F09EE8872F762F05C0662371F096E8DE
:1023E000862F70E060E02AF09A95660F771F881FAD
:1023F000DAF7880F9695879597F90895990F000851
:10240000550FAA0BE0E8FEEF16161706E807F907C6
:10241000C0F012161306E407F50798F0621B730B61
:10242000840B950B39F40A2661F0232B242B252BE2
:1024300021F408950A2609F4A140A6958FEF811D85
:10244000811D089597F99F6780E870E060E0089526
:102450009FEF80EC089500240A94161617061806BC
:102460000906089500240A94121613061406050698
:102470000895092E0394000C11F4882352F0BB0F29
:1024800040F4BF2B11F460FF04C06F5F7F4F8F4F8C
:102490009F4F089557FD9058440F551F59F05F3FC7
:1024A00071F04795880F97FB991F61F09F3F79F076
:1024B00087950895121613061406551FF2CF4695F8
:1024C000F1DF08C0161617061806991FF1CF86957A
:1024D0007105610508940895E894BB27662777275E
:1024E000CB0197F908950BD0C4CFB5DF28F0BADF40
:1024F00018F0952309F0A6CFABCF1124EECFCADF99
:10250000A0F3959FD1F3950F50E0551F629FF00106
:10251000729FBB27F00DB11D639FAA27F00DB11D5F
:10252000AA1F649F6627B00DA11D661F829F2227E8
:10253000B00DA11D621F739FB00DA11D621F839F6F
:10254000A00D611D221F749F3327A00D611D231F45
:10255000849F600D211D822F762F6A2F11249F5793
:1025600050408AF0E1F088234AF0EE0FFF1FBB1FB6
:10257000661F771F881F91505040A9F79E3F510555
:1025800070F060CFAACF5F3FECF3983EDCF3869506
:1025900077956795B795F795E7959F5FC1F7FE2B00
:1025A000880F911D9695879597F9089587FB082EBA
:1025B000062687FD819567FD619555D00EF49195AE
:1025C00007FC8195089597FB092E07260AD077FD11
:1025D00004D055D006D000201AF4709561957F4F35
:1025E0000895F6F7909581959F4F0895A1E21A2ED0
:1025F000AA1BBB1BFD010DC0AA1FBB1FEE1FFF1FA7
:10260000A217B307E407F50720F0A21BB30BE40BF6
:10261000F50B661F771F881F991F1A9469F760953D
:102620007095809590959B01AC01BD01CF010895F7
:1026300097FB092E05260ED057FD04D0D7DF0AD010
:10264000001C38F450954095309521953F4F4F4FE1
:102650005F4F0895F6F790958095709561957F4F3F
:102660008F4F9F4F0895991B79E004C0991F9617CB
:1026700008F0961B881F7A95C9F780950895AA1BC4
:10268000BB1B51E107C0AA1FBB1FA617B70710F05D
:10269000A61BB70B881F991F5A95A9F7809590958F
:1026A000BC01CD010895EE0FFF1F0590F491E02DC0
:1026B0000994911106C0803219F089508550D0F7E5
:1026C00008959927882708952F923F924F925F92FD
:1026D0006F927F928F929F92AF92BF92CF92DF9232
:1026E000EF92FF920F931F93CF93DF93CDB7DEB797
:1026F000CA1BDB0B0FB6F894DEBF0FBECDBF09942B
:102700002A88398848885F846E847D848C849B8481
:10271000AA84B984C884DF80EE80FD800C811B818F
:10272000AA81B981CE0FD11D0FB6F894DEBF0FBEBE
:0A273000CDBFED010895F894FFCF2E
:10273A0068657265212121002C0068657265320086
:10274A006865726533004750532044415441200064
:10275A002000537461747573202D20417A20002063
:10276A00456C2000252A7320256420256400212138
:10277A00212121212120415A20616E6420454C20CB
:10278A00696E70757420696E636F72726563746CBA
:10279A0079202121212121212100212121212121E9
:1027AA002120417A696D757468206E6F7420656E98
:1027BA0074657265642077697468206C696D6974E0
:1027CA0073202121212121212100212121212121BF
:1027DA002120456C65766174696F6E206E6F742076
:1027EA00656E74657265642077697468206C696DBA
:1027FA0069747320212121212121210020202D20EB
:10280A0020436F6D6D616E642052656365697665FC
:10281A006420004D6F76655F417A456C004D6F7696
:10282A00655F53746F7000527173745F417A456CBF
:10283A00004D616E755F4F667374004D616E755F12
:10284A004F667374202564202564002121212121EB
:10285A002121204F667365747320696E7075742028
:10286A00696E636F72726563746C7920212121210C
:10287A0021212100527173745F4F667374004D6198
:10288A006E755F416C676E004D6F76655F48654592
:10289A006C00527173745F4750535F0021212121EC
:1028AA0021212120434F4D4D414E44204E4F54206B
:1028BA005245434F474E4953454420212121212166
:1028CA00212100436F6D6D616E642073656E742003
:1028DA002D2075706C6F6164206E657720636F6D53
:1028EA006D616E640050726F6772616D206861730A
:1028FA0020626567756E21210055706C6F616420D6
:10290A00616E74656E6E6120706F736974696F6E43
:10291A00207768656E207265616479002E000D006B
:10292A00080007000200475047474100573030303F
:10293A00300130383736010F20005730303030013F
:10294A0030383736012F20005730303030013038D8
:10295A003736011F200000000000D70C210D390D69
:00000001FF
